:020000040000FA
:100000000A128A11D92FFF1B0D2883137F1883171B
:100010000008840A0319FF0A080000308A00040857
:10002000840A820700344C346134203474346534DB
:100030006D347034653472346134743475347234B0
:100040006134203465347334203431343034303406
:10005000B03400344C3461342034743465346D343D
:10006000703465347234613474347534723461348C
:10007000203465347334203438343034B0340034B0
:100080004C3461342034743465346D3470346534E8
:1000900072346134743475347234613420346534AC
:1000A0007334203439343034B03400344C34613457
:1000B0002034743465346D34703465347234613492
:1000C00074347534723461342034653473342034BC
:1000D0003034B034003430343034303430343134AF
:0200E0000034EA
:10099A0064008001840A0406031900340406CE2C7C
:1009AA00303430343034303431344434693473348C
:1009BA0070340034003400340034003400347E08CB
:1009CA008A007F0882000A128A11E4240A128A1114
:1009DA008000840A04087D0603190034FF0A0319FB
:1009EA00FE0AE82CF401102D831203130C1EFE2CB0
:1009FA00FF2CF92C74087007840071080318710A17
:100A0A00FF000A128A1103200A128A119900013082
:100A1A00F3007308F40772087402031C152D162DCF
:100A2A00F92C0800831203132608F7007708F80048
:100A3A002708F7007708F9002808F7007708FA006E
:100A4A002908F7007708FB002A08F7007708FC0056
:100A5A005930F7007708F00078300A128A114125D8
:100A6A000A128A117008710403193C2D3D2D3F2D7D
:100A7A000130402D00300800F6004B2D0130F20005
:100A8A007208F6070130F2007208F0077008840055
:100A9A000A128A110D200A128A11F20076088400BD
:100AAA000008F30072087302F4007408F500750870
:100ABA00031D602D612D682D760884000008031D32
:100ACA00672D682D432D7508F000F101F01BF10325
:100ADA00080044346934733470346F3473346934BD
:100AEA007434693476346F3420347134753465342F
:100AFA00203463346F346E34743472346F346C342B
:100B0A00613420346C3461342034743465346D3487
:100B1A0070346534723461347434753472346134C7
:100B2A00203464346534203475346E3461342034AE
:100B3A0070346134763461342E3400340034003435
:100B4A00831203131A08DB004B08343E84005B0847
:100B5A00831380000C1EB22DB32DAF2D4B08343EEB
:100B6A0084008313000899004B08343E84006530E2
:100B7A000006031DC12DC22DE12DDC01D22D5C081A
:100B8A00343E84000008DB005C08203E84005B08D9
:100B9A0080000130DB005B08DC074B085C02031CA9
:100BAA00D72DD82DC42D0A128A119B260A128A1112
:100BBA0083120313CB01E52D0130DB005B08CB0761
:100BCA000800023083160317880087308312031344
:100BDA009F008030831603139F000330850086012F
:100BEA00880189018312031385018601870188011F
:100BFA00890183160313981618158312031398177D
:100C0A0018168316031787111930831603139900D0
:100C1A009A0183128C1E122E132E292E0A128A1161
:100C2A00A5250A128A11292E051185118512412E30
:100C3A00051585118512412E051185118516412E3E
:100C4A00051185158512412E831203134A08DD000A
:100C5A00DE015E08003A0319332E412E5D08013A7F
:100C6A000319192E033A03191D2E013A0319212ECD
:100C7A00073A0319252E412E9F145230831203136B
:100C8A00DD00DD0B462E0000831203131E08DD0073
:100C9A00DE015D08DE00DD015D08C8005E08C900EE
:100CAA00831603131E08831203134807DD0049083D
:100CBA000318490ADE005D08C8005E08C900003052
:100CCA004902A3300319480203186C2E6D2E702EA8
:100CDA00860185010E2E00304902B83003194802F8
:100CEA000318782E792E7D2EF030860085010E2E7F
:100CFA0000304902CC30031948020318852E862E8B
:100D0A00892EFC3086007B2E00304902E13003191F
:100D1A0048020318912E922E972EFF308600C0307B
:100D2A0085000E2E0E2E0A128A1100280A128A1126
:100D3A0017250A128A11003A0319A42EA52EF52E98
:100D4A005B30831203132006031DAC2EAD2ED82F61
:100D5A0043302106031DB22EB32ED82F523022065D
:100D6A00031DB82EB92ED82F2C302306031DBE2EF4
:100D7A00BF2ED82F2C302506031DC42EC52ED82FE2
:100D8A005D302B06031DCA2ECB2ED82F31302406F8
:100D9A00031DD02ED12EDE2E5130F0000030F1008E
:100DAA000A30FD007D08F2000A128A11F7240A129D
:100DBA008A113230831203132406031DE52EE62E10
:100DCA00D82FA030F0000030F1003230FD007D084D
:100DDA00F2000A128A11F7240A128A11D82FD82F80
:100DEA005B30831203132006031DFC2EFD2E512FA8
:100DFA0050302106031D022F032F512F41302206A6
:100E0A00031D082F092F512F2C302306031D0E2FE7
:100E1A000F2F512F2C302506031D142F152F512F5C
:100E2A002C302B06031D1A2F1B2F512F2C302E0668
:100E3A00031D202F212F512F5D303106031D262F30
:100E4A00272F512F31302406031D2C2F2D2F302F01
:100E5A00CA01CA0AD82F32302406031D352F362F6D
:100E6A003B2F0230FD007D08CA00D82F33302406FC
:100E7A00031D402F412F462F0330FD007D08CA0075
:100E8A00D82F34302406031D4B2F4C2FF42E043058
:100E9A00FD007D08CA00D82F5B302006031D562F9F
:100EAA00572FD82F43302106031D5C2F5D2FD82FD3
:100EBA004F302206031D622F632FD82F2C302306B2
:100ECA00031D682F692FD82F2C302506031D6E2F7E
:100EDA006F2FD82F2C302B06031D742F752FD82F68
:100EEA002C302E06031D7A2F7B2FD82F5D3031062A
:100EFA00031D802F812FD82F31302406031D862F02
:100F0A00872FD82F4A03031D8B2F8C2F992F4430FC
:100F1A00F0008030F1001430FD007D08F2000A1262
:100F2A008A11F7240A128A110230831203134A061D
:100F3A00031DA02FA12FAE2F1830F0008030F10032
:100F4A001530FD007D08F2000A128A11F7240A12F0
:100F5A008A110330831203134A06031DB52FB62FD5
:100F6A00C32F2E30F0008030F1001530FD007D08CF
:100F7A00F2000A128A11F7240A128A110430831223
:100F8A0003134A06031DCA2FCB2FD82F0130F000B6
:100F9A008030F1001630FD007D08F2000A128A1135
:100FAA00F7240A128A1108008313D730FD0005308E
:100FBA00FE006E30FF00A03084000A128A11E82475
:100FCA000A128A115B30FD000430FE00D530FF00A2
:100FDA004C3084000A128A11E8240A128A1120303D
:100FEA0084004C300A128A11CD240A128A11830114
:060FFA000A128A11E62D27
:04400E00E4EFFFFFDD
:00000001FF
