:020000040000FA
:100000000A128A11D12FFF1B0D2883137F18831723
:100010000008840A0319FF0A080000308A00040857
:10002000840A820700344C346134203474346534DB
:100030006D347034653472346134743475347234B0
:100040006134203465347334203431343034303406
:10005000B03400344C3461342034743465346D343D
:10006000703465347234613474347534723461348C
:10007000203465347334203438343034B0340034B0
:100080004C3461342034743465346D3470346534E8
:1000900072346134743475347234613420346534AC
:1000A0007334203439343034B03400344C34613457
:1000B0002034743465346D34703465347234613492
:1000C00074347534723461342034653473342034BC
:1000D0003034B034003430343034303430343134AF
:0200E0000034EA
:1005BC0064008001840A0406031900340406DF2A4F
:1005CC00303430343034303431344434693473346E
:1005DC0070340034003400340034003400347E08AD
:1005EC008A007F0882000A128A11F5220A128A11E7
:1005FC008000840A04087D0603190034FF0A0319DD
:10060C00FE0AF92AF401212B831203130C1E0F2B63
:10061C00102B0A2B74087007840071080318710AD8
:10062C00FF000A128A1103200A128A119900013064
:10063C00F3007308F40772087402031C262B272B93
:10064C000A2B0800831203132608F7007708F8001A
:10065C002708F7007708F9002808F7007708FA0050
:10066C002908F7007708FB002A08F7007708FC0038
:10067C005930F7007708F00078300A128A115223AB
:10068C000A128A117008710403194D2B4E2B502B32
:10069C000130512B00300800F6005C2B0130F200C9
:1006AC007208F6070130F2007208F0077008840037
:1006BC000A128A110D200A128A11F200760884009F
:1006CC000008F30072087302F4007408F500750852
:1006DC00031D712B722B792B760884000008031DE7
:1006EC00782B792B542B7508F000F101F01BF103DA
:1006FC00080044346934733470346F34733469349F
:10070C007434693476346F34203471347534653410
:10071C00203463346F346E34743472346F346C340C
:10072C00613420346C3461342034743465346D3469
:10073C0070346534723461347434753472346134A9
:10074C00203464346534203475346E346134203490
:10075C00703461347634831203131A08D4003F08C2
:10076C00D23E84005408831380000C1EBE2BBF2B7A
:10077C00BB2B3F08D23E84008313000899003F082E
:10078C00D23E840065300006031DCD2BCE2BED2B05
:10079C00D501DE2B5508D23E84000008D400550844
:1007AC00203E8400540880000130D4005408D50742
:1007BC003F085502031CE32BE42BD02B0A128A11A1
:1007CC0088260A128A1183120313BF01F12B013000
:1007DC00D4005408BF07080000307005F800003042
:1007EC007105F90080307205FA007F307305FB004B
:1007FC007B087A0479047804031D052C062C0E2C36
:10080C000030F3000030F2000030F1000030F00056
:10081C0000307405F80000307505F900803076055D
:10082C00FA007F307705FB007B087A0479047804A2
:10083C00031D212C222C2A2C0030F7000030F6004E
:10084C000030F5000030F400F31F2D2C2E2C522C10
:10085C000030F8000030F9000030FA008030FB0066
:10086C007008F8027108031C710F3D2C3E2CF90224
:10087C007208031C720F432C442CFA027308031CDD
:10088C00730F492C4A2CFB027B08F3007A08F20008
:10089C007908F1007808F000F71F552C562C7A2CAB
:1008AC000030F8000030F9000030FA008030FB0016
:1008BC007408F8027508031C750F652C662CF90278
:1008CC007608031C760F6B2C6C2CFA027708031C31
:1008DC00770F712C722CFB027B08F7007A08F6005C
:1008EC007908F5007808F4008030F3068030F706BC
:1008FC0077087302031D8C2C76087202031D8C2C56
:10090C0075087102031D8C2C7408700203188F2C4F
:10091C00902C922C0310932C03140800F8007808E8
:10092C000319992C9A2CAE2CF31F9D2C9E2CAE2CBB
:10093C007009FA007109FB007209FC007309FD00D3
:10094C00FA0A0319FB0A0319FC0A0319FD0AB62C4F
:10095C007308FD007208FC007108FB007008FA00B7
:10096C007308720471047004031DBD2CBE2CC72CBB
:10097C000030F3000030F2000030F1000030F000E5
:10098C004D2D9630F4007408F900D92C0130F40088
:10099C007408F90701300310FD0CFC0CFB0CFA0C6D
:1009AC00FF3E031DD12CFE307D05031DDE2CDF2CFC
:1009BC00CC2CFB2C0130F4007408F9070130FA0739
:1009CC00003003180130FB07003003180130FC071E
:1009DC00003003180130FD0701300310FD0CFC0C36
:1009EC00FB0CFA0CFF3E031DF32CFF307D05031DA1
:1009FC00002D012DE02C0D2D0130F9020130F400F9
:100A0C000310FA0DFB0DFC0DFD0DF40B062DFC1B5C
:100A1C00102D112D172D023079020318162D172DBC
:100A2C00022D79181A2D1B2D232DFF30FA05FF30BE
:100A3C00FB057F30FC05FF30FD050310F90C790830
:100A4C00F400F501F601F70118300310F40DF50D63
:100A5C00F60DF70DFF3E031D2B2D7408FA047508D7
:100A6C00FB047608FC047708FD04780803193F2D75
:100A7C00402D452DF31F432D442D452DFD177D088D
:100A8C00F3007C08F2007B08F1007A08F000080003
:100A9C008316031788018901043083160313810020
:100AAC000230850086018701871798161815831266
:100ABC00031398171816831603178711193083160A
:100ACC00031399009A01831603178801881483165F
:100ADC0003139F171F129F12831203131F141F0857
:100AEC00C33904389F00851105128512D801D9012C
:100AFC000B1D812D822D512E0108833E81000B117F
:100B0C000130D8070318D90A0030D907F430580639
:100B1C00031D942D5903031D942D952D512ED80191
:100B2C00D9019F14C02D1E08D600D7015608D70036
:100B3C00D601831603131E08831203135607F00005
:100B4C000030031801305707F100F201F11BF203DA
:100B5C007208F30001300A128A1194240A128A11C5
:100B6C00730883120313DD007208DC007108DB00CC
:100B7C007008DA009F18C32DC42D992D03308312F1
:100B8C000313D7009730D600D60BCA2DD70BCA2D1E
:100B9C00831203135D08F3005C08F2005B08F1009C
:100BAC005A08F0004330F7002330F6000030F5000F
:100BBC000030F4000A128A11F2230A128A11031867
:100BCC00E82DE92DEE2D8312031386018501512E9C
:100BDC00831203135D08F3005C08F2005B08F1005C
:100BEC005A08F0004330F7003830F6000030F500BA
:100BFC000030F4000A128A11F2230A128A11031827
:100C0C00082E092E0F2EF030831203138600850157
:100C1C00512E831203135D08F3005C08F2005B088D
:100C2C00F1005A08F0004330F7004C30F600003069
:100C3C00F5000030F4000A128A11F2230A128A110C
:100C4C000318292E2A2E2F2EFC3083120313860014
:100C5C000D2E831203135D08F3005C08F2005B0891
:100C6C00F1005A08F0004330F7004C30F600003029
:100C7C00F5000030F4000A128A11F2230A128A11CC
:100C8C00031C492E4A2E512EFF308312031386006B
:100C9C00C0308500512E831203138C1E562E572EF6
:100CAC006D2E0A128A11B1230A128A116D2E85112A
:100CBC00051285127E2D8515851285127E2D8511C6
:100CCC00051685127E2D8511051285167E2D831233
:100CDC0003133E08D600D7015708003A0319772EA4
:100CEC007E2D5608013A03195D2E033A0319612E25
:100CFC00013A0319652E073A0319692E7E2D0A1243
:100D0C008A1100280A128A1128230A128A11003A21
:100D1C000319912E922ED02F5B30831203132006D1
:100D2C00031D992E9A2EE22E43302106031D9F2E71
:100D3C00A02EE22E52302206031DA52EA62EE22E48
:100D4C002C302306031DAB2EAC2EE22E2C302506A8
:100D5C00031DB12EB22EE22E5D302B06031DB72ED5
:100D6C00B82EE22E31302406031DBD2EBE2ECB2E06
:100D7C004930F0000030F1000A30FD007D08F2002F
:100D8C000A128A1108230A128A11323083120313B1
:100D9C002406031DD22ED32ED02FA030F00000300D
:100DAC00F1003230FD007D08F2000A128A1108238E
:100DBC000A128A11D02FD02F5B302006031DE72E8C
:100DCC00E82E492F50302106031DED2EEE2E492F13
:100DDC0041302206031DF32EF42E492F2C3023060E
:100DEC00031DF92EFA2E492F2C302506031DFF2E3C
:100DFC00002F492F2C302B06031D052F062F492FB2
:100E0C002C302E06031D0B2F0C2F492F5D30310675
:100E1C00031D112F122F492F31302406031D172FBC
:100E2C00182F282FBE01BE0A4930F0000030F10007
:100E3C000A30FD007D08F2000A128A1108230A12FA
:100E4C008A11D02F32302406031D2D2F2E2F332F35
:100E5C000230FD007D08BE00D02F33302406031D68
:100E6C00382F392F3E2F0330FD007D08BE00D02FC8
:100E7C0034302406031D432F442FE12E0430FD0093
:100E8C007D08BE00D02F5B302006031D4E2F4F2F48
:100E9C00E12E43302106031D542F552FE12E4F30E8
:100EAC002206031D5A2F5B2FE12E2C302306031D27
:100EBC00602F612FE12E2C302506031D662F672F26
:100ECC00E12E2C302B06031D6C2F6D2FE12E2C30B8
:100EDC002E06031D722F732FE12E5D303106031D7C
:100EEC00782F792FE12E31302406031D7E2F7F2F92
:100EFC00D02F3E03031D832F842F912F4430F000FD
:100F0C008030F1001430FD007D08F2000A128A11C5
:100F1C0008230A128A110230831203133E06031DA2
:100F2C00982F992FA62F1830F0008030F100153033
:100F3C00FD007D08F2000A128A1108230A128A1198
:100F4C000330831203133E06031DAD2FAE2FBB2FB0
:100F5C002E30F0008030F1001530FD007D08F200DD
:100F6C000A128A1108230A128A11043083120313FD
:100F7C003E06031DC22FC32FE12E0130F00080303E
:100F8C00F1001630FD007D08F2000A128A110823C8
:100F9C000A128A1108008313D230FD000330FE00C0
:100FAC007F30FF00A03084000A128A11F9220A1245
:100FBC008A115330FD000230FE00E630FF00443051
:100FCC0084000A128A11F9220A128A11D230840082
:100FDC00E6300A128A11DE220A128A1120308400AD
:100FEC0044300A128A11DE220A128A1183010A1273
:040FFC008A114E2DDB
:04400E00D4F3FFFFE9
:00000001FF
