:020000040000FA
:100000000A128A11D82FF800F401F5017008F200E5
:10001000F3017208F6007308F700781C1028112805
:1000200017287608F4070318F50A7708F507013052
:100030000310F60DF70DFF3E031D18280310F80CF2
:100040007808031D242825280D287508F100740858
:10005000F0000800F800780803192F2830284428F9
:10006000F31F3328342844287009FA007109FB0073
:100070007209FC007309FD00FA0A0319FB0A03194F
:10008000FC0A0319FD0A4C287308FD007208FC00E5
:100090007108FB007008FA007308720471047004A0
:1000A000031D532854285D280030F3000030F2006F
:1000B0000030F1000030F000E3289630F4007408BE
:1000C000F9006F280130F4007408F90701300310BB
:1000D000FD0CFC0CFB0CFA0CFF3E031D6728FE30E8
:1000E0007D05031D74287528622891280130F400CD
:1000F0007408F9070130FA07003003180130FB07D4
:10010000003003180130FC07003003180130FD07F0
:1001100001300310FD0CFC0CFB0CFA0CFF3E031D20
:100120008928FF307D05031D962897287628A32867
:100130000130F9020130F4000310FA0DFB0DFC0D43
:10014000FD0DF40B9C28FC1BA628A728AD28023027
:1001500079020318AC28AD2898287918B028B1285E
:10016000B928FF30FA05FF30FB057F30FC05FF3072
:10017000FD050310F90C7908F400F501F601F7010B
:1001800018300310F40DF50DF60DF70DFF3E031DAD
:10019000C1287408FA047508FB047608FC04770883
:1001A000FD0478080319D528D628DB28F31FD928A1
:1001B000DA28DB28FD177D08F3007C08F2007B08B5
:1001C000F1007A08F00008000A128A15C7240A1202
:1001D0008A11003A0319ED28EE28992A5B3083161C
:1001E00003132006031DF528F6283629433021067F
:1001F000031DFB28FC28362952302206031D012945
:10020000022936292C302306031D072908293629FF
:100210002C302506031D0D290E2936295D302B06AD
:10022000031D13291429362931302406031D1929E9
:100230001A292329DA30F0000030F1000A128A1559
:10024000F1240A128A113230831603132406031D87
:100250002A292B29992A9030F0000130F1000A1246
:100260008A15F1240A128A11992A992A5B302006EC
:10027000031D3B293C299C2950302106031D41299F
:1002800042299C2941302206031D472948299C29DF
:100290002C302306031D4D294E299C292C30250680
:1002A000031D532954299C292C302B06031D592941
:1002B0005A299C292C302E06031D5F2960299C2970
:1002C0005D303106031D652966299C2931302406DD
:1002D000031D6B296C296F29D401D40A992A323065
:1002E0002406031D742975297E2902308312031305
:1002F000DF005F0883160313D400992A33302406E5
:10030000031D832984298D29033083120313DF0001
:100310005F0883160313D400992A34302406031D82
:10032000922993293529043083120313DF005F08D3
:1003300083160313D400992A5B302006031DA129DC
:10034000A229352943302106031DA729A8293529CB
:100350004F302206031DAD29AE2935292C30230646
:10036000031DB329B42935292C302506031DB929CD
:10037000BA2935292C302B06031DBF29C029352960
:100380002C302E06031DC529C62935295D303106BE
:10039000031DCB29CC29352931302406031DD12951
:1003A000D229992A5208F0005308F1000030F11BBD
:1003B000FF30F200F30001300A128A112A200A12DB
:1003C0008A11730883120313A7007208A60071082C
:1003D000A5007008A4004030A300A030A2000030A7
:1003E000A1000030A0000A128A1177240A128A1193
:1003F000831203132308C1002208C0002108BF0094
:100400002008BE004430BD007F30BC00C030BB00BF
:100410000030BA000A128A119A220A128A11831233
:1004200003133D08E3003C08E2003B08E1003A0802
:10043000E0006308A7006208A6006108A500600844
:10044000A4004230A300C830A2000030A100003058
:10045000A0000A128A1177240A128A118312031348
:100460002308D7002208D6002108D5002008D40090
:100470000A128A156B260A128A1183120313550871
:10048000E9005408E8006430F0000030F100690829
:10049000F3006808F2000A128A1504260A128A116B
:1004A0007008303E83120313DF005F08E4000A3057
:1004B000F9000030FA000A30F0000030F10069085D
:1004C000F3006808F2000A128A1504260A128A113B
:1004D0007108FC007008FB000A128A15A9250A128F
:1004E0008A117908303E83120313DF005F08E500AC
:1004F0000A30F9000030FA006908FC006808FB00C7
:100500000A128A15A9250A128A117908303E831227
:100510000313DF005F08E6004330DF005F08E700F9
:100520006430F0000030F1000A128A15F1240A123A
:100530008A1108008312031341088039C20042085F
:10054000CB004108C2004207C3004308D200C01FCD
:10055000AA2AAB2AAC2A521452080319B02AB12A8B
:10056000C12A520A031DB52AB62ABE2A0030C1008C
:100570000030C0000030BF000030BE00C017C10115
:10058000C92A0030C1000030C0000030BF00003078
:10059000BE003D088039C2004208CB063D08C200BB
:1005A0004207C3004308D300BC1FD72AD82AD92A40
:1005B000531453080319DD2ADE2AEE2A530A031DB9
:1005C000E22AE32AEB2A0030BD000030BC000030F4
:1005D000BB000030BA00BC17BD01F62A0030BD00D8
:1005E0000030BC000030BB000030BA003D083C04C5
:1005F0003B043A04031DFD2AFE2A172B0030C100DC
:100600000030C0000030BF000030BE008030C004A9
:100610007F30C1044B08C2004208C1044108BD003C
:100620004008BC003F08BB003E08BA00762C5208C8
:10063000031D1B2B1C2B252B0030BD000030BC00E4
:100640000030BB000030BA00762C5208C200C30153
:100650004308C50053084202C400031CC5034408F4
:100660007F3ECC0045080318013E003ECD00410806
:10067000CA004008C9003F08C8003E08C700003053
:10068000C1000030C0000030BF000030BE000030AC
:10069000D1000030D0000030CF000030CE00D301B8
:1006A0009B2B53080319552B562B762B0130C20078
:1006B0000310C70DC80DC90DCA0DC20B582B013050
:1006C000C2000310BE0DBF0DC00DC10DC20B612BCA
:1006D000D11F6B2B6C2B6D2B3E140130C20003100D
:1006E000CE0DCF0DD00DD10DC20B6F2B3D084A02A0
:1006F000031D842B3C084902031D842B3B08480240
:10070000031D842B3A084702031C872B882B972B49
:1007100051173A08C7023B08031C3B0FC8023C08AC
:10072000031C3C0FC9023D08031C3D0FCA020130E7
:10073000C2004208D3071A305302031CA02BA12B7E
:10074000512B4A084904480447040319A82BA92B34
:10075000C82B4E14C82B0130C2000310BE0DBF0DB4
:10076000C00DC10DC20BAD2BD11FB72BB82BB92BB0
:100770003E140130C2000310CE0DCF0DD00DD10DAF
:10078000C20BBB2BFF30CC070318CD0AFF30CD07BF
:10079000C01FCB2BCC2BAB2BD301D11FD02BD12BFC
:1007A000ED2BFF304E05C200FF304F05C300FF3078
:1007B0005005C4007F305105C5004508440443047A
:1007C00042040319E42BE52BE82BD301D30AED2BCC
:1007D0003E1CEB2BEC2BED2BE52B53080319F12BD7
:1007E000F22B232C0130BE07003003180130BF0765
:1007F000003003180130C007003003180130C10772
:10080000411C032C042C232C3E08C2003F08C300CB
:100810004008C4004108C5000130C600450DC50CA4
:10082000C40CC30CC20CC60B0E2C4508C1004408F6
:10083000C0004308BF004208BE000130CC070318C7
:10084000CD0A0030CD074D08803AFF0080307F028E
:10085000031D2C2CFF304C02031C2F2C302C3E2C63
:10086000FF3083120313CC000030CD000030C100F4
:100870000030C0000030BF000030BE008312031300
:100880004D08803AFF0080307F02031D492C013063
:100890004C0203184C2C4D2C5A2C83120313CC0100
:1008A000CD010030C1000030C0000030BF0000307A
:1008B000BE00CB01831203134C08C2004208D200D1
:1008C000521C632C642C662CC0176A2C7F30C2002B
:1008D0004208C0055208C2000310420CC30043087E
:1008E000C1004B08C2004208C1040E2B080083124D
:1008F000031323088039A8002808AD002308A800A6
:100900002807A9002908B300A21F872C882C892C4E
:100910003314330803198D2C8E2C9D2C330A031DA0
:10092000922C932C9B2C0030A3000030A2000030AE
:10093000A1000030A000A217A52C0030A3000030B9
:10094000A2000030A1000030A00027088039A800D4
:100950002808AD062708A8002807A9002908B20022
:10096000A61FB32CB42CB52C321432080319B92CA1
:10097000BA2CC92C320A031DBE2CBF2CC72C003048
:10098000A7000030A6000030A5000030A400A61784
:10099000D12C0030A7000030A6000030A5000030A8
:1009A000A40032080319D52CD62CDB2C3308031DE8
:1009B000DA2CDB2CE42C0030A3000030A200003045
:1009C000A1000030A000D72F2008A8002808F000C0
:1009D00026080A128A1103200A128A11710883124A
:1009E0000313B9007008B8003808A800A901AA01CB
:1009F000AB012B08B1002A08B0002908AF00280875
:100A0000AE003908A800A901AA01AB012B08B70064
:100A10002A08B6002908B5002808B4002108A80053
:100A20002808F00025080A128A1103200A128A11E8
:100A3000710883120313B9007008B8003808A800C1
:100A4000A901AA01AB012808AE0729080311031860
:100A5000013E03192C2DAF072A0803110318013E8C
:100A60000319332DB0072B0803110318013E031996
:100A70003A2DB1073908A800A901AA01AB0128083D
:100A8000B407290803110318013E0319482DB507BF
:100A90002A0803110318013E03194F2DB6072B082E
:100AA00003110318013E0319562DB7072208A800A9
:100AB0002808F00024080A128A1103200A128A1159
:100AC000710883120313B9007008B8003808A80031
:100AD000A901AA01AB012808AE07290803110318D0
:100AE000013E0319742DAF072A0803110318013EB4
:100AF00003197B2DB0072B0803110318013E0319BE
:100B0000822DB1073908A800A901AA01AB01280864
:100B1000B407290803110318013E0319902DB507E6
:100B20002A0803110318013E0319972DB6072B0855
:100B300003110318013E03199E2DB7070830A800C2
:100B40000310AE0DAF0DB00DB10DA80BA02D2108F7
:100B5000A8002808F00024080A128A1103200A12AB
:100B60008A11710883120313B9007008B80038089D
:100B7000A8003908A900AA01AB012808AE07290876
:100B800003110318013E0319C62DAF072A080311EC
:100B90000318013E0319CD2DB0072B0803110318CC
:100BA000013E0319D42DB1072008A8002808F00041
:100BB00025080A128A1103200A128A117108831269
:100BC0000313B9007008B8003808A8003908A90054
:100BD000AA01AB012808AE07290803110318013E3A
:100BE0000319F32DAF072A0803110318013E031957
:100BF000FA2DB0072B0803110318013E0319012E2B
:100C0000B1070830A8000310AE0DAF0DB00DB10D47
:100C1000A80B032E2008A8002808F00024080A12B8
:100C20008A1103200A128A11710883120313B90072
:100C30007008B8003808A8003908A900AA01AB015B
:100C40002808AE07290803110318013E0319292EAD
:100C5000AF072A0803110318013E0319302EB0070D
:100C60002B0803110318013E0319372EB107210881
:100C7000A8002808F00026080A128A1103200A1288
:100C80008A11710883120313B9007008B80038087C
:100C9000A8003908A900AA01AB012808B40729084F
:100CA00003110318013E0319562EB5072A08031134
:100CB0000318013E03195D2EB6072B080311031814
:100CC000013E0319642EB7072208A8002808F00087
:100CD00025080A128A1103200A128A117108831248
:100CE0000313B9007008B8003808A8003908A90033
:100CF000AA01AB012808B407290803110318013E13
:100D00000319832EB5072A0803110318013E03199E
:100D10008A2EB6072B0803110318013E0319912EE2
:100D2000B7072208A8002808F00026080A128A112E
:100D300003200A128A11710883120313B900700884
:100D4000B8003808A8003908A900AA01AB0108308A
:100D50000310A80DA90DAA0DAB0DFF3E031DA82E73
:100D60002808B407290803110318013E0319B92EF6
:100D7000B5072A0803110318013E0319C02EB60750
:100D80002B0803110318013E0319C72EB7072E08BD
:100D9000A8002F08A9003008AA003108AB001830BD
:100DA0000310AB0CAA0CA90CA80CFF3E031DD02EFF
:100DB0002808B407290803110318013E0319E12E7E
:100DC000B5072A0803110318013E0319E82EB607D8
:100DD0002B0803110318013E0319EF2EB707083043
:100DE000A8000310AE0DAF0DB00DB10DA80BF12E84
:100DF00033083207A800A901A90D2808823EB800CF
:100E000029080318013EFF3EB900232F0130A80036
:100E10000310B40DB50DB60DB70DA80B082FB11FFB
:100E2000122F132F142F34140130A8000310AE0D0D
:100E3000AF0DB00DB10DA80B162FFF30B80703187A
:100E4000B90AFF30B907B61F262F272F062FB20188
:100E5000B11F2B2F2C2F482FFF302E05A800FF305D
:100E60002F05A900FF303005AA007F303105AB0007
:100E70002B082A042904280403193F2F402F432F4D
:100E8000B201B20A482F341C462F472F482F402F5B
:100E9000320803194C2F4D2F7E2F0130B40700303C
:100EA00003180130B507003003180130B6070030D1
:100EB00003180130B707371C5E2F5F2F7E2F3408D1
:100EC000A8003508A9003608AA003708AB00013091
:100ED000AC002B0DAB0CAA0CA90CA80CAC0B692F09
:100EE0002B08B7002A08B6002908B5002808B40066
:100EF0000130B8070318B90A0030B9073908803A39
:100F0000FF0080307F02031D872FFF303802031C53
:100F10008A2F8B2F962F7F3083120313B7008030D8
:100F2000B6000030B5000030B400CB2F831203139D
:100F30003908803AFF0080307F02031DA12F013065
:100F400038020318A42FA52FB12F003083120313EA
:100F5000B7000030B6000030B5000030B400AD017D
:100F6000CB2F831203133808A8002808B300FF30E2
:100F7000B405FF30B5057F30B6050030B705331C2A
:100F8000C22FC32FC42FB6173308A8000310280C94
:100F9000A9002908B7002D08A8002808B7043708B9
:100FA000A3003608A2003508A1003408A0000800FC
:100FB0008317C730FD000D30FE001D30FF0090305C
:100FC00084000A128A158E240A128A118313EA30C9
:100FD000FD000C30FE007A30FF00DA3084000A1287
:100FE0008A158E240A128A11A0308400DA300A127F
:100FF0008A1572240A128A1183010A128A15E72EB1
:1018E40064008001840A0406031900340406732C7E
:1018F40044346934733470340034003400340034B4
:101904000034003430343034303430343034003443
:101914007E088A007F0882000A128A158A240A1225
:101924008A158000840A04087D0603190034FF0A1E
:101934000319FE0A8E2CF600A72C0130F20072085F
:10194400F6070130F2007208F00770088400831370
:101954000008F200760884000008F300720873029D
:10196400F4007408F5007508031DB92CBA2CC12CB9
:10197400760884000008031DC02CC12C9F2C750818
:10198400F000F101F01BF10308008316031326088D
:10199400F7007708F8002708F7007708F900280807
:1019A400F7007708FA002908F7007708FB002A08EF
:1019B400F7007708FC00E430F7007708F00078308F
:1019C4000A128A159D240A128A15700871040319D3
:1019D400EC2CED2CEF2C0130F02C00300800F4013D
:1019E4000B2D831203130C1EF82CF92CF32C740802
:1019F4007007F20071080318013EF30072088400B6
:101A04008317731C8313000899000130F2007208D5
:101A1400F40774087007F20071080318013EF3001C
:101A2400720884008317731C83130008031D1B2D85
:101A34001C2DF32C080044346934733470346F342F
:101A4400733469347434693476346F3420347134C3
:101A540075346534203463346F346E3474347234C2
:101A64006F346C34613420346C3461342034743415
:101A740065346D347034653472346134743475345F
:101A840072346134203464346534203475346E34F3
:101A94006134203470346134763461342E3400344B
:101AA40000340034831203131A08EA008316031364
:101AB4005508B43E8400831203136A08831380001C
:101AC4000C1E652D662D622D831603135508B43E36
:101AD40084008313000883120313990083160313ED
:101AE4005508B43E840065300006031D7A2D7B2D15
:101AF400A02D83120313EB018D2D6B08B43E8400DB
:101B04000008EA006B08A03E84006A0880000130E7
:101B1400EA006A08EB0783160313550883120313BC
:101B24006B02031C962D972D7F2D0A128A11E42037
:101B34000A128A1583160313D501A82D01308312C6
:101B44000313EA006A0883160313D50708008312F7
:101B54000313A101FC1FAF2DB02DB72DFB09FC0908
:101B6400FB0A0319FC0AA101A10AFA1FBA2DBB2D15
:101B7400C02DF909FA09F90A0319FA0A79087A044D
:101B84000319C52DC62DF52DA001A00AD42D0130B1
:101B94000310F90DFA0DFF3E031DCA2D0130FD009F
:101BA4007D08A007FA1FD72DD82DC92D7A087C02ED
:101BB400031DDE2D79087B02031CE12DE22DE82DA7
:101BC4007908FB027A08031CFC03FC0201300310B1
:101BD400FA0CF90CFF3E031DE92D0130A002031D90
:101BE400F42DF52DD82D21080319F92DFA2DFF2DEB
:101BF400FB09FC09FB0A0319FC0A7C08FA007B08B0
:101C0400F9000800F601F11F082E092E102EF00924
:101C1400F109F00A0319F10AF601F60AF31F132E6B
:101C2400142E1D2EF209F309F20A0319F30A0130E6
:101C3400F4007408F606F701F8017008710403193A
:101C4400242E252E5C2EF501F50A332E01300310C7
:101C5400F00DF10DFF3E031D292E0130F400740830
:101C6400F507F11F362E372E282E01300310F70DFD
:101C7400F80DFF3E031D382E71087302031D442E18
:101C840070087202031C472E482E4F2E7008F20271
:101C94007108031CF303F302771401300310F10CF1
:101CA400F00CFF3E031D502E0130F502031D5B2E88
:101CB4005C2E372E76080319602E612E662EF709E6
:101CC400F809F70A0319F80A7808F1007708F00010
:101CD4000800031083120313560D570DD80058083B
:101CE400DE005E08031D772E782E812E0030D7008B
:101CF4000030D6000030D5000030D400E62E540861
:101D0400D8005508D9005608DA005708DB001F3000
:101D14000310DB0CDA0CD90CD80CFF3E031D8A2E01
:101D24005808DC005C08DD00D617FF30D405FF300E
:101D3400D505FF30D6050030D7059630DE02DE1F0C
:101D4400A42EA52EBF2E5E08803A973E0318AB2E14
:101D5400AC2EAD2E782E01300310D70CD60CD50C3A
:101D6400D40CFF3E031DAE2E0130D8005808DE0708
:101D7400031DBD2EBE2EAD2ED62E20305E02031CBA
:101D8400C42EC52ED12E782E0130D8000310D40DC8
:101D9400D50DD60DD70DD80BC82E0130DE025E0846
:101DA400031DD52ED62EC62E5D080319DA2EDB2E82
:101DB400E62ED409D509D609D709D40A0319D50AB8
:101DC4000319D60A0319D70A0800831603178801D2
:101DD40089010430831603138100023085008601D3
:101DE4008701871798161815831203139817181666
:101DF40083160317871119308316031399009A0168
:101E04008316031788018814831603139F171F1260
:101E14009F12831203131F141F08C33904389F0031
:101E2400851105128512081C182F192F1D2F8316D2
:101E34000313E401E40A8312881C212F222F262F86
:101E440083160313E501E50A8312081D2A2F2B2F9D
:101E54002F2F83160313E601E60A8312881D332FFE
:101E6400342F382F83160313E701E70A8312081E61
:101E74003C2F3D2F412F83160313E801E80A8312F8
:101E8400EE01EF010B1D472F482FC72F0108833E9A
:101E940081000B110130EE070318EF0A0030EF0741
:101EA400F4306E06031D5A2F6F03031D5A2F5B2F48
:101EB400C72FEE01EF019F14652F1E08831603132D
:101EC400D3001E08D20083129F18692F6A2F5F2F38
:101ED400033083120313ED009730EC00EC0B702FEA
:101EE400ED0B702F831603135308803AFF008030E4
:101EF4007F02031D7F2FA33052020318822F832FEA
:101F0400882F8312031386018501C72F83160313B9
:101F14005308803AFF0080307F02031D932FB830AE
:101F240052020318962F972F9D2FF030831203131C
:101F340086008501C72F831603135308803AFF00D8
:101F440080307F02031DA82FCC3052020318AB2F20
:101F5400AC2FB12FFC308312031386009B2F831602
:101F640003135308803AFF0080307F02031DBC2F07
:101F7400CC305202031CBF2FC02FC72FFF30831257
:101F840003138600C0308500C72F831203138C1EF1
:101F9400CC2FCD2FE32F0A128A1554250A128A1545
:101FA400E32F851105128512442F8515851285129C
:101FB400442F851105168512442F851105128516A7
:101FC400442F83160313540883120313EC00ED010A
:101FD4006D08003A0319EF2F442F6C08013A0319D6
:101FE400D32F033A0319D72F013A0319DB2F073AEA
:0C1FF4000319DF2F442F0A128A11002865
:04400E00D4F3FFFFE9
:00000001FF
